{"abi":[{"type":"function","name":"getVotesForCandidate","inputs":[{"name":"candidate","type":"string","internalType":"string"}],"outputs":[{"name":"","type":"uint256","internalType":"uint256"}],"stateMutability":"view"},{"type":"function","name":"voteForCandidate","inputs":[{"name":"candidate","type":"string","internalType":"string"}],"outputs":[],"stateMutability":"nonpayable"},{"type":"function","name":"votes","inputs":[{"name":"","type":"string","internalType":"string"}],"outputs":[{"name":"","type":"uint256","internalType":"uint256"}],"stateMutability":"view"}],"bytecode":{"object":"0x608060405234801561001057600080fd5b506102c9806100206000396000f3fe608060405234801561001057600080fd5b50600436106100415760003560e01c80636ff1562714610046578063b99ef1fa1461006b578063e89927ef14610096575b600080fd5b610059610054366004610136565b6100ab565b60405190815260200160405180910390f35b610059610079366004610136565b805160208183018101805160008252928201919093012091525481565b6100a96100a4366004610136565b6100d2565b005b600080826040516100bc9190610205565b9081526020016040518091039020549050919050565b6000816040516100e29190610205565b90815260405190819003602001902080549060006100ff83610234565b919050555050565b7f4e487b7100000000000000000000000000000000000000000000000000000000600052604160045260246000fd5b60006020828403121561014857600080fd5b813567ffffffffffffffff8082111561016057600080fd5b818401915084601f83011261017457600080fd5b81358181111561018657610186610107565b604051601f82017fffffffffffffffffffffffffffffffffffffffffffffffffffffffffffffffe0908116603f011681019083821181831017156101cc576101cc610107565b816040528281528760208487010111156101e557600080fd5b826020860160208301376000928101602001929092525095945050505050565b6000825160005b81811015610226576020818601810151858301520161020c565b506000920191825250919050565b60007fffffffffffffffffffffffffffffffffffffffffffffffffffffffffffffffff820361028c577f4e487b7100000000000000000000000000000000000000000000000000000000600052601160045260246000fd5b506001019056fea264697066735822122090312ecd894b89eccb1572388753003a2bae1f3485cb370b39f5830011c98ab464736f6c63430008170033","linkReferences":{}},"methodIdentifiers":{"getVotesForCandidate(string)":"6ff15627","voteForCandidate(string)":"e89927ef","votes(string)":"b99ef1fa"},"id":0}