{"abi":[{"type":"constructor","inputs":[],"stateMutability":"nonpayable"},{"type":"receive","stateMutability":"payable"},{"type":"function","name":"contributeData","inputs":[{"name":"_genotypicData","type":"uint256","internalType":"uint256"},{"name":"_phenotypicData","type":"uint256","internalType":"uint256"}],"outputs":[],"stateMutability":"nonpayable"},{"type":"function","name":"getContractBalance","inputs":[],"outputs":[{"name":"","type":"uint256","internalType":"uint256"}],"stateMutability":"view"},{"type":"function","name":"owner","inputs":[],"outputs":[{"name":"","type":"address","internalType":"address payable"}],"stateMutability":"view"},{"type":"function","name":"participantAddresses","inputs":[{"name":"","type":"uint256","internalType":"uint256"}],"outputs":[{"name":"","type":"address","internalType":"address"}],"stateMutability":"view"},{"type":"function","name":"participants","inputs":[{"name":"","type":"address","internalType":"address"}],"outputs":[{"name":"genotypicData","type":"uint256","internalType":"uint256"},{"name":"phenotypicData","type":"uint256","internalType":"uint256"},{"name":"hasContributed","type":"bool","internalType":"bool"}],"stateMutability":"view"},{"type":"function","name":"rewardParticipants","inputs":[],"outputs":[],"stateMutability":"nonpayable"},{"type":"event","name":"Contribution","inputs":[{"name":"participant","type":"address","indexed":true,"internalType":"address"},{"name":"genotypicData","type":"uint256","indexed":false,"internalType":"uint256"},{"name":"phenotypicData","type":"uint256","indexed":false,"internalType":"uint256"},{"name":"timestamp","type":"uint256","indexed":false,"internalType":"uint256"}],"anonymous":false},{"type":"event","name":"Reward","inputs":[{"name":"participant","type":"address","indexed":true,"internalType":"address"},{"name":"amount","type":"uint256","indexed":false,"internalType":"uint256"}],"anonymous":false}],"bytecode":{"object":"0x608060405234801561001057600080fd5b50600280546001600160a01b0319163317905561075f806100326000396000f3fe6080604052600436106100695760003560e01c80638da5cb5b116100435780638da5cb5b146101365780639f74e47014610163578063c4ca388d1461018557600080fd5b806309e69ede1461007557806354ffbddb146100d65780636f9fb98a1461011b57600080fd5b3661007057005b600080fd5b34801561008157600080fd5b506100b4610090366004610647565b60006020819052908152604090208054600182015460029092015490919060ff1683565b6040805193845260208401929092521515908201526060015b60405180910390f35b3480156100e257600080fd5b506100f66100f1366004610684565b61019a565b60405173ffffffffffffffffffffffffffffffffffffffff90911681526020016100cd565b34801561012757600080fd5b506040514781526020016100cd565b34801561014257600080fd5b506002546100f69073ffffffffffffffffffffffffffffffffffffffff1681565b34801561016f57600080fd5b5061018361017e36600461069d565b6101d1565b005b34801561019157600080fd5b50610183610356565b600181815481106101aa57600080fd5b60009182526020909120015473ffffffffffffffffffffffffffffffffffffffff16905081565b3360009081526020819052604090206002015460ff1615610279576040517f08c379a000000000000000000000000000000000000000000000000000000000815260206004820152602e60248201527f47656e657469634461746153686172696e673a20596f7527766520616c72656160448201527f647920636f6e747269627574656400000000000000000000000000000000000060648201526084015b60405180910390fd5b336000818152602081815260408083208681556001808201879055600290910180547fffffffffffffffffffffffffffffffffffffffffffffffffffffffffffffff0016821790558054808201825593527fb10e2d527612073b26eecdfd717e6a320cf44b4afac2b0732d9fcbe2b7fa0cf690920180547fffffffffffffffffffffffff000000000000000000000000000000000000000016841790558151858152908101849052428183015290517f460eb5f4fd2327fac159ebd2dfcf744a60eed1a83dd95367e1811f166396748e9181900360600190a25050565b60025473ffffffffffffffffffffffffffffffffffffffff1633146103fd576040517f08c379a000000000000000000000000000000000000000000000000000000000815260206004820152602860248201527f47656e657469634461746153686172696e673a20596f75206172656e2774207460448201527f6865206f776e65720000000000000000000000000000000000000000000000006064820152608401610270565b60015461048c576040517f08c379a000000000000000000000000000000000000000000000000000000000815260206004820152602d60248201527f47656e657469634461746153686172696e673a204e6f2070617274696369706160448201527f6e747320746f20726577617264000000000000000000000000000000000000006064820152608401610270565b600154479060009061049e90836106bf565b905060005b60015481101561056c576000600182815481106104c2576104c26106fa565b600091825260208220015460405173ffffffffffffffffffffffffffffffffffffffff9091169250829185156108fc02918691818181858888f19350505050158015610512573d6000803e3d6000fd5b508073ffffffffffffffffffffffffffffffffffffffff167f619caafabdd75649b302ba8419e48cccf64f37f1983ac4727cfb38b57703ffc98460405161055b91815260200190565b60405180910390a2506001016104a3565b5060005b6001548110156105fc5760008060018381548110610590576105906106fa565b600091825260208083209091015473ffffffffffffffffffffffffffffffffffffffff168352820192909252604001812081815560018181019290925560020180547fffffffffffffffffffffffffffffffffffffffffffffffffffffffffffffff0016905501610570565b506106096001600061060d565b5050565b508054600082559060005260206000209081019061062b919061062e565b50565b5b80821115610643576000815560010161062f565b5090565b60006020828403121561065957600080fd5b813573ffffffffffffffffffffffffffffffffffffffff8116811461067d57600080fd5b9392505050565b60006020828403121561069657600080fd5b5035919050565b600080604083850312156106b057600080fd5b50508035926020909101359150565b6000826106f5577f4e487b7100000000000000000000000000000000000000000000000000000000600052601260045260246000fd5b500490565b7f4e487b7100000000000000000000000000000000000000000000000000000000600052603260045260246000fdfea2646970667358221220ef6602c2aa8b6f02e72837780c4338a5d843f052e396f9fd29d35f48deee94ea64736f6c63430008170033","linkReferences":{}},"methodIdentifiers":{"contributeData(uint256,uint256)":"9f74e470","getContractBalance()":"6f9fb98a","owner()":"8da5cb5b","participantAddresses(uint256)":"54ffbddb","participants(address)":"09e69ede","rewardParticipants()":"c4ca388d"},"id":0}