{"abi":[{"type":"constructor","inputs":[{"name":"_unlockTime","type":"uint256","internalType":"uint256"},{"name":"nalla","type":"uint256","internalType":"uint256"},{"name":"_initialLockStatus","type":"bool","internalType":"bool"}],"stateMutability":"payable"},{"type":"receive","stateMutability":"payable"},{"type":"function","name":"getContractBalance","inputs":[],"outputs":[{"name":"","type":"uint256","internalType":"uint256"}],"stateMutability":"view"},{"type":"function","name":"isLocked","inputs":[],"outputs":[{"name":"","type":"bool","internalType":"bool"}],"stateMutability":"view"},{"type":"function","name":"lock","inputs":[],"outputs":[],"stateMutability":"nonpayable"},{"type":"function","name":"owner","inputs":[],"outputs":[{"name":"","type":"address","internalType":"address payable"}],"stateMutability":"view"},{"type":"function","name":"unlock","inputs":[],"outputs":[],"stateMutability":"nonpayable"},{"type":"function","name":"unlockTime","inputs":[],"outputs":[{"name":"","type":"uint256","internalType":"uint256"}],"stateMutability":"view"},{"type":"function","name":"withdraw","inputs":[{"name":"amount","type":"uint256","internalType":"uint256"}],"outputs":[],"stateMutability":"nonpayable"},{"type":"event","name":"Withdrawal","inputs":[{"name":"amount","type":"uint256","indexed":false,"internalType":"uint256"},{"name":"when","type":"uint256","indexed":false,"internalType":"uint256"}],"anonymous":false}],"bytecode":{"object":"0x60806040526040516105df3803806105df83398101604081905261002291610057565b60009290925550600180546001600160a81b0319163360ff60a01b191617600160a01b92151592909202919091179055610095565b60008060006060848603121561006c57600080fd5b83519250602084015191506040840151801515811461008a57600080fd5b809150509250925092565b61053b806100a46000396000f3fe6080604052600436106100745760003560e01c80638da5cb5b1161004e5780638da5cb5b146100de578063a4e2d63414610130578063a69df4b514610172578063f83d08ba1461018757600080fd5b8063251c1aa3146100805780632e1a7d4d146100a95780636f9fb98a146100cb57600080fd5b3661007b57005b600080fd5b34801561008c57600080fd5b5061009660005481565b6040519081526020015b60405180910390f35b3480156100b557600080fd5b506100c96100c43660046104ec565b61019c565b005b3480156100d757600080fd5b5047610096565b3480156100ea57600080fd5b5060015461010b9073ffffffffffffffffffffffffffffffffffffffff1681565b60405173ffffffffffffffffffffffffffffffffffffffff90911681526020016100a0565b34801561013c57600080fd5b506001546101629074010000000000000000000000000000000000000000900460ff1681565b60405190151581526020016100a0565b34801561017e57600080fd5b506100c9610313565b34801561019357600080fd5b506100c961042a565b60015474010000000000000000000000000000000000000000900460ff1615610226576040517f08c379a000000000000000000000000000000000000000000000000000000000815260206004820152601860248201527f436f6e7472616374206973207374696c6c206c6f636b6564000000000000000060448201526064015b60405180910390fd5b80471015610290576040517f08c379a000000000000000000000000000000000000000000000000000000000815260206004820152601260248201527f496e73756666696369656e742066756e64730000000000000000000000000000604482015260640161021d565b604080518281524260208201527fbf2ed60bd5b5965d685680c01195c9514e4382e28e3a5a2d2d5244bf59411b93910160405180910390a160015460405173ffffffffffffffffffffffffffffffffffffffff9091169082156108fc029083906000818181858888f1935050505015801561030f573d6000803e3d6000fd5b5050565b60015473ffffffffffffffffffffffffffffffffffffffff163314610394576040517f08c379a000000000000000000000000000000000000000000000000000000000815260206004820152601460248201527f596f75206172656e277420746865206f776e6572000000000000000000000000604482015260640161021d565b600054421015610400576040517f08c379a000000000000000000000000000000000000000000000000000000000815260206004820152601f60248201527f556e6c6f636b2074696d6520686173206e6f7420617272697665642079657400604482015260640161021d565b600180547fffffffffffffffffffffff00ffffffffffffffffffffffffffffffffffffffff169055565b60015473ffffffffffffffffffffffffffffffffffffffff1633146104ab576040517f08c379a000000000000000000000000000000000000000000000000000000000815260206004820152601460248201527f596f75206172656e277420746865206f776e6572000000000000000000000000604482015260640161021d565b600180547fffffffffffffffffffffff00ffffffffffffffffffffffffffffffffffffffff1674010000000000000000000000000000000000000000179055565b6000602082840312156104fe57600080fd5b503591905056fea264697066735822122014971670fdc207819e351b65e56fa37397b83ea43382d05776518b7e4c8d5f2064736f6c63430008170033","linkReferences":{}},"methodIdentifiers":{"getContractBalance()":"6f9fb98a","isLocked()":"a4e2d634","lock()":"f83d08ba","owner()":"8da5cb5b","unlock()":"a69df4b5","unlockTime()":"251c1aa3","withdraw(uint256)":"2e1a7d4d"},"id":0}