{"abi":[{"type":"constructor","inputs":[{"name":"flag","type":"uint256","internalType":"uint256"}],"stateMutability":"payable"},{"type":"receive","stateMutability":"payable"},{"type":"function","name":"contributeData","inputs":[{"name":"_genotypicData","type":"uint256","internalType":"uint256"},{"name":"_phenotypicData","type":"uint256","internalType":"uint256"},{"name":"zkProof","type":"uint8[1]","internalType":"uint8[1]"}],"outputs":[],"stateMutability":"nonpayable"},{"type":"function","name":"getContractBalance","inputs":[],"outputs":[{"name":"","type":"uint256","internalType":"uint256"}],"stateMutability":"view"},{"type":"function","name":"owner","inputs":[],"outputs":[{"name":"","type":"address","internalType":"address payable"}],"stateMutability":"view"},{"type":"function","name":"participantAddresses","inputs":[{"name":"","type":"uint256","internalType":"uint256"}],"outputs":[{"name":"","type":"address","internalType":"address"}],"stateMutability":"view"},{"type":"function","name":"participants","inputs":[{"name":"","type":"address","internalType":"address"}],"outputs":[{"name":"genotypicData","type":"uint256","internalType":"uint256"},{"name":"phenotypicData","type":"uint256","internalType":"uint256"},{"name":"hasContributed","type":"bool","internalType":"bool"}],"stateMutability":"view"},{"type":"function","name":"rewardParticipants","inputs":[],"outputs":[],"stateMutability":"nonpayable"},{"type":"function","name":"verifier","inputs":[],"outputs":[{"name":"","type":"address","internalType":"contract Verifier"}],"stateMutability":"view"},{"type":"event","name":"Contribution","inputs":[{"name":"participant","type":"address","indexed":true,"internalType":"address"},{"name":"genotypicData","type":"uint256","indexed":false,"internalType":"uint256"},{"name":"phenotypicData","type":"uint256","indexed":false,"internalType":"uint256"},{"name":"timestamp","type":"uint256","indexed":false,"internalType":"uint256"}],"anonymous":false},{"type":"event","name":"Reward","inputs":[{"name":"participant","type":"address","indexed":true,"internalType":"address"},{"name":"amount","type":"uint256","indexed":false,"internalType":"uint256"}],"anonymous":false}],"bytecode":{"object":"0x608060405260405161108c38038061108c83398101604081905261002291610094565b50600280546001600160a01b0319163317905560405160019061004490610087565b604051809103906000f080158015610060573d6000803e3d6000fd5b50600380546001600160a01b0319166001600160a01b0392909216919091179055506100ad565b6103c680610cc683390190565b6000602082840312156100a657600080fd5b5051919050565b610c0a806100bc6000396000f3fe6080604052600436106100745760003560e01c806354ffbddb1161004e57806354ffbddb146101555780636f9fb98a146101755780638da5cb5b14610190578063c4ca388d146101bd57600080fd5b806309e69ede146100805780630eb699fa146100e15780632b7ac3f31461010357600080fd5b3661007b57005b600080fd5b34801561008c57600080fd5b506100bf61009b3660046108e4565b60006020819052908152604090208054600182015460029092015490919060ff1683565b6040805193845260208401929092521515908201526060015b60405180910390f35b3480156100ed57600080fd5b506101016100fc366004610966565b6101d2565b005b34801561010f57600080fd5b506003546101309073ffffffffffffffffffffffffffffffffffffffff1681565b60405173ffffffffffffffffffffffffffffffffffffffff90911681526020016100d8565b34801561016157600080fd5b50610130610170366004610a00565b6104ed565b34801561018157600080fd5b506040514781526020016100d8565b34801561019c57600080fd5b506002546101309073ffffffffffffffffffffffffffffffffffffffff1681565b3480156101c957600080fd5b50610101610524565b3360009081526020819052604090206002015460ff161561027a576040517f08c379a000000000000000000000000000000000000000000000000000000000815260206004820152602e60248201527f47656e657469634461746153686172696e673a20596f7527766520616c72656160448201527f647920636f6e747269627574656400000000000000000000000000000000000060648201526084015b60405180910390fd5b610282610894565b815160ff168152600354604080518082018252835181528351602080830191909152825160808101845285518185019081528651606083015281528351808501855286518152865181840152818301528351808501855286518152865181840152845192830185526001835293517f43753b4d00000000000000000000000000000000000000000000000000000000815273ffffffffffffffffffffffffffffffffffffffff909516946343753b4d9461034194939091600401610a71565b602060405180830381865afa15801561035e573d6000803e3d6000fd5b505050506040513d601f19601f820116820180604052508101906103829190610b18565b61040e576040517f08c379a000000000000000000000000000000000000000000000000000000000815260206004820152602160248201527f47656e657469634461746153686172696e673a20496e76616c69642070726f6f60448201527f66000000000000000000000000000000000000000000000000000000000000006064820152608401610271565b336000818152602081815260408083208881556001808201899055600290910180547fffffffffffffffffffffffffffffffffffffffffffffffffffffffffffffff0016821790558054808201825593527fb10e2d527612073b26eecdfd717e6a320cf44b4afac2b0732d9fcbe2b7fa0cf690920180547fffffffffffffffffffffffff000000000000000000000000000000000000000016841790558151878152908101869052428183015290517f460eb5f4fd2327fac159ebd2dfcf744a60eed1a83dd95367e1811f166396748e9181900360600190a250505050565b600181815481106104fd57600080fd5b60009182526020909120015473ffffffffffffffffffffffffffffffffffffffff16905081565b60025473ffffffffffffffffffffffffffffffffffffffff1633146105cb576040517f08c379a000000000000000000000000000000000000000000000000000000000815260206004820152602860248201527f47656e657469634461746153686172696e673a20596f75206172656e2774207460448201527f6865206f776e65720000000000000000000000000000000000000000000000006064820152608401610271565b60015461065a576040517f08c379a000000000000000000000000000000000000000000000000000000000815260206004820152602d60248201527f47656e657469634461746153686172696e673a204e6f2070617274696369706160448201527f6e747320746f20726577617264000000000000000000000000000000000000006064820152608401610271565b4760005b6001548110156107835760006001828154811061067d5761067d610a19565b600091825260208220015473ffffffffffffffffffffffffffffffffffffffff1691506106a8610823565b73ffffffffffffffffffffffffffffffffffffffff83166000908152602081905260409020546106d89086610b69565b6106e29190610b86565b60405190915073ffffffffffffffffffffffffffffffffffffffff83169082156108fc029083906000818181858888f19350505050158015610728573d6000803e3d6000fd5b508173ffffffffffffffffffffffffffffffffffffffff167f619caafabdd75649b302ba8419e48cccf64f37f1983ac4727cfb38b57703ffc98260405161077191815260200190565b60405180910390a2505060010161065e565b5060005b60015481101561081357600080600183815481106107a7576107a7610a19565b600091825260208083209091015473ffffffffffffffffffffffffffffffffffffffff168352820192909252604001812081815560018181019290925560020180547fffffffffffffffffffffffffffffffffffffffffffffffffffffffffffffff0016905501610787565b50610820600160006108b2565b50565b600080805b60015481101561088e576000806001838154811061084857610848610a19565b600091825260208083209091015473ffffffffffffffffffffffffffffffffffffffff1683528201929092526040019020546108849083610bc1565b9150600101610828565b50919050565b60405180602001604052806001906020820280368337509192915050565b508054600082559060005260206000209081019061082091905b808211156108e057600081556001016108cc565b5090565b6000602082840312156108f657600080fd5b813573ffffffffffffffffffffffffffffffffffffffff8116811461091a57600080fd5b9392505050565b7f4e487b7100000000000000000000000000000000000000000000000000000000600052604160045260246000fd5b803560ff8116811461096157600080fd5b919050565b60008060006060848603121561097b57600080fd5b83359250602080850135925085605f86011261099657600080fd5b6040516020810181811067ffffffffffffffff821117156109b9576109b9610921565b6040528060608701888111156109ce57600080fd5b604088015b818110156109f1576109e481610950565b83529184019184016109d3565b50505080925050509250925092565b600060208284031215610a1257600080fd5b5035919050565b7f4e487b7100000000000000000000000000000000000000000000000000000000600052603260045260246000fd5b8060005b6002811015610a6b578151845260209384019390910190600101610a4c565b50505050565b6101208101610a808287610a48565b60408083018660005b6002808210610a985750610ad3565b82518460005b83811015610abc578251825260209283019290910190600101610a9e565b505050928401925060209190910190600101610a89565b50505050610ae460c0830185610a48565b61010082018360005b6001811015610b0c578151835260209283019290910190600101610aed565b50505095945050505050565b600060208284031215610b2a57600080fd5b8151801515811461091a57600080fd5b7f4e487b7100000000000000000000000000000000000000000000000000000000600052601160045260246000fd5b8082028115828204841417610b8057610b80610b3a565b92915050565b600082610bbc577f4e487b7100000000000000000000000000000000000000000000000000000000600052601260045260246000fd5b500490565b80820180821115610b8057610b80610b3a56fea26469706673582212209eceda0e9a3ecad43dd44db2afe6bd5f18869c18bee05be3d46b011cf2b5a34d64736f6c63430008170033608060405234801561001057600080fd5b506103a6806100206000396000f3fe608060405234801561001057600080fd5b506004361061002b5760003560e01c806343753b4d14610030575b600080fd5b61004361003e366004610212565b610057565b604051901515815260200160405180910390f35b600061008385600160200201518560005b602002015160015b60200201518460005b6020020151610128565b85516100a2908660005b602002015160005b6020020151856000610079565b1480156100cb575060208501516100bb90856001610068565b85516100c99086600161008d565b145b80156100f8575083516100e89060005b6020020151846000610070565b85516100f690876000610095565b145b801561011f5750835161010c9060016100db565b602086015161011d90876001610095565b145b95945050505050565b60008161013584866102f1565b61013f9190610335565b949350505050565b7f4e487b7100000000000000000000000000000000000000000000000000000000600052604160045260246000fd5b6040805190810167ffffffffffffffff8111828210171561019957610199610147565b60405290565b6040516020810167ffffffffffffffff8111828210171561019957610199610147565b600082601f8301126101d357600080fd5b6101db610176565b8060408401858111156101ed57600080fd5b845b818110156102075780358452602093840193016101ef565b509095945050505050565b60008060008061012080868803121561022a57600080fd5b61023487876101c2565b9450604087605f88011261024757600080fd5b61024f610176565b8060c089018a81111561026157600080fd5b60408a015b81811015610287576102788c826101c2565b84526020909301928401610266565b508197506102958b826101c2565b9650505050508661011f8701126102ab57600080fd5b6102b361019f565b9086019080888311156102c557600080fd5b61010088015b838110156102e35780358352602092830192016102cb565b509598949750929550505050565b808202811582820484141761032f577f4e487b7100000000000000000000000000000000000000000000000000000000600052601160045260246000fd5b92915050565b60008261036b577f4e487b7100000000000000000000000000000000000000000000000000000000600052601260045260246000fd5b50069056fea2646970667358221220898b150eeaac2fff1ad371dcfeab191ede695404a094f73a0749d46b48c7d04c64736f6c63430008170033","linkReferences":{}},"methodIdentifiers":{"contributeData(uint256,uint256,uint8[1])":"0eb699fa","getContractBalance()":"6f9fb98a","owner()":"8da5cb5b","participantAddresses(uint256)":"54ffbddb","participants(address)":"09e69ede","rewardParticipants()":"c4ca388d","verifier()":"2b7ac3f3"},"id":0}