{"abi":[{"type":"constructor","inputs":[{"name":"_seller","type":"address","internalType":"address"},{"name":"_arbiter","type":"address","internalType":"address"}],"stateMutability":"payable"},{"type":"function","name":"amount","inputs":[],"outputs":[{"name":"","type":"uint256","internalType":"uint256"}],"stateMutability":"view"},{"type":"function","name":"arbiter","inputs":[],"outputs":[{"name":"","type":"address","internalType":"address"}],"stateMutability":"view"},{"type":"function","name":"buyer","inputs":[],"outputs":[{"name":"","type":"address","internalType":"address"}],"stateMutability":"view"},{"type":"function","name":"confirmReceived","inputs":[],"outputs":[],"stateMutability":"nonpayable"},{"type":"function","name":"dispute","inputs":[],"outputs":[],"stateMutability":"nonpayable"},{"type":"function","name":"releaseFunds","inputs":[],"outputs":[],"stateMutability":"nonpayable"},{"type":"function","name":"resolveDispute","inputs":[],"outputs":[],"stateMutability":"nonpayable"},{"type":"function","name":"seller","inputs":[],"outputs":[{"name":"","type":"address","internalType":"address"}],"stateMutability":"view"},{"type":"function","name":"state","inputs":[],"outputs":[{"name":"","type":"uint8","internalType":"enum Escrow.State"}],"stateMutability":"view"},{"type":"event","name":"Confirmed","inputs":[],"anonymous":false},{"type":"event","name":"Disputed","inputs":[],"anonymous":false},{"type":"event","name":"Refunded","inputs":[],"anonymous":false},{"type":"event","name":"Released","inputs":[],"anonymous":false}],"bytecode":{"object":"0x608060405260405161086e38038061086e83398101604081905261002291610088565b600080546001600160a01b03199081163317909155600180546001600160a01b0394851690831617905560028054929093169116179055346003556004805460ff191690556100bb565b80516001600160a01b038116811461008357600080fd5b919050565b6000806040838503121561009b57600080fd5b6100a48361006c565b91506100b26020840161006c565b90509250929050565b6107a4806100ca6000396000f3fe608060405234801561001057600080fd5b50600436106100a35760003560e01c806373fac6f011610076578063c19d93fb1161005b578063c19d93fb14610143578063f240f7c31461015d578063fe25e00a1461016557600080fd5b806373fac6f014610124578063aa8c217c1461012c57600080fd5b806308551a53146100a85780635b39a33f146100f257806369d89575146100fc5780637150d8ae14610104575b600080fd5b6001546100c89073ffffffffffffffffffffffffffffffffffffffff1681565b60405173ffffffffffffffffffffffffffffffffffffffff90911681526020015b60405180910390f35b6100fa610185565b005b6100fa6102a9565b6000546100c89073ffffffffffffffffffffffffffffffffffffffff1681565b6100fa61044c565b61013560035481565b6040519081526020016100e9565b6004546101509060ff1681565b6040516100e9919061072d565b6100fa6105a5565b6002546100c89073ffffffffffffffffffffffffffffffffffffffff1681565b60025473ffffffffffffffffffffffffffffffffffffffff16331461020b576040517f08c379a000000000000000000000000000000000000000000000000000000000815260206004820181905260248201527f4f6e6c7920617262697465722063616e207265736f6c7665206469737075746560448201526064015b60405180910390fd5b600480547fffffffffffffffffffffffffffffffffffffffffffffffffffffffffffffff0016811790556000805460035460405173ffffffffffffffffffffffffffffffffffffffff909216926108fc8215029290818181858888f1935050505015801561027d573d6000803e3d6000fd5b506040517f8616bbbbad963e4e65b1366f1d75dfb63f9e9704bbbf91fb01bec70849906cf790600090a1565b60005473ffffffffffffffffffffffffffffffffffffffff16331461032a576040517f08c379a000000000000000000000000000000000000000000000000000000000815260206004820152601860248201527f4f6e6c792062757965722063616e2063616c6c207468697300000000000000006044820152606401610202565b6001806004805460ff1690811115610344576103446106fe565b146103ab576040517f08c379a000000000000000000000000000000000000000000000000000000000815260206004820152600d60248201527f496e76616c6964207374617465000000000000000000000000000000000000006044820152606401610202565b600480547fffffffffffffffffffffffffffffffffffffffffffffffffffffffffffffff0016600217905560015460035460405173ffffffffffffffffffffffffffffffffffffffff909216916108fc82150291906000818181858888f1935050505015801561041f573d6000803e3d6000fd5b506040517f20d29efe076941f73e5574acb023c424d63cd6d3d12eb5ac3108a5eaf177daed90600090a150565b60005473ffffffffffffffffffffffffffffffffffffffff1633146104cd576040517f08c379a000000000000000000000000000000000000000000000000000000000815260206004820152601860248201527f4f6e6c792062757965722063616e2063616c6c207468697300000000000000006044820152606401610202565b6000806004805460ff16908111156104e7576104e76106fe565b1461054e576040517f08c379a000000000000000000000000000000000000000000000000000000000815260206004820152600d60248201527f496e76616c6964207374617465000000000000000000000000000000000000006044820152606401610202565b600480547fffffffffffffffffffffffffffffffffffffffffffffffffffffffffffffff001660011790556040517f1e393d8f648e647a6dfadc3679e705971550b75e5c722b193a5bae02151894c190600090a150565b60005473ffffffffffffffffffffffffffffffffffffffff163314610626576040517f08c379a000000000000000000000000000000000000000000000000000000000815260206004820152601860248201527f4f6e6c792062757965722063616e2063616c6c207468697300000000000000006044820152606401610202565b6001806004805460ff1690811115610640576106406106fe565b146106a7576040517f08c379a000000000000000000000000000000000000000000000000000000000815260206004820152600d60248201527f496e76616c6964207374617465000000000000000000000000000000000000006044820152606401610202565b600480547fffffffffffffffffffffffffffffffffffffffffffffffffffffffffffffff001660031790556040517f62e6201d9d8347c868b82a92d7fbfb40d6ec959b06b155dd3a486b2fdc7e9cfe90600090a150565b7f4e487b7100000000000000000000000000000000000000000000000000000000600052602160045260246000fd5b6020810160058310610768577f4e487b7100000000000000000000000000000000000000000000000000000000600052602160045260246000fd5b9190529056fea2646970667358221220b7353e33b95fe70688170f617eb77b895e2d0eb8a94aa03d1a91a28171d4fe3e64736f6c63430008170033","linkReferences":{}},"methodIdentifiers":{"amount()":"aa8c217c","arbiter()":"fe25e00a","buyer()":"7150d8ae","confirmReceived()":"73fac6f0","dispute()":"f240f7c3","releaseFunds()":"69d89575","resolveDispute()":"5b39a33f","seller()":"08551a53","state()":"c19d93fb"},"id":0}