{"abi":[{"type":"function","name":"balances","inputs":[{"name":"","type":"address","internalType":"address"}],"outputs":[{"name":"","type":"uint256","internalType":"uint256"}],"stateMutability":"view"},{"type":"function","name":"mint","inputs":[{"name":"amount","type":"uint256","internalType":"uint256"}],"outputs":[],"stateMutability":"nonpayable"},{"type":"function","name":"transfer","inputs":[{"name":"to","type":"address","internalType":"address"},{"name":"amount","type":"uint256","internalType":"uint256"}],"outputs":[],"stateMutability":"nonpayable"}],"bytecode":{"object":"0x608060405234801561001057600080fd5b506102c5806100206000396000f3fe608060405234801561001057600080fd5b50600436106100415760003560e01c806327e235e314610046578063a0712d6814610078578063a9059cbb1461008d575b600080fd5b6100666100543660046101cf565b60006020819052908152604090205481565b60405190815260200160405180910390f35b61008b6100863660046101f1565b6100a0565b005b61008b61009b36600461020a565b6100c7565b33600090815260208190526040812080548392906100bf908490610263565b909155505050565b33600090815260208190526040902054811115610144576040517f08c379a000000000000000000000000000000000000000000000000000000000815260206004820152601460248201527f496e73756666696369656e742062616c616e6365000000000000000000000000604482015260640160405180910390fd5b336000908152602081905260408120805483929061016390849061027c565b909155505073ffffffffffffffffffffffffffffffffffffffff82166000908152602081905260408120805483929061019d908490610263565b90915550505050565b803573ffffffffffffffffffffffffffffffffffffffff811681146101ca57600080fd5b919050565b6000602082840312156101e157600080fd5b6101ea826101a6565b9392505050565b60006020828403121561020357600080fd5b5035919050565b6000806040838503121561021d57600080fd5b610226836101a6565b946020939093013593505050565b7f4e487b7100000000000000000000000000000000000000000000000000000000600052601160045260246000fd5b8082018082111561027657610276610234565b92915050565b818103818111156102765761027661023456fea2646970667358221220edfa91dba72f3cb286e159beb6f6caca7bbc40cfb3306c3fcda9c1d00a2a69b564736f6c63430008170033","linkReferences":{}},"methodIdentifiers":{"balances(address)":"27e235e3","mint(uint256)":"a0712d68","transfer(address,uint256)":"a9059cbb"},"id":0}